{
  "_format": "hh-sol-artifact-1",
  "contractName": "Pswd",
  "sourceName": "contracts/Pswd.sol",
  "abi": [
    {
      "inputs": [],
      "stateMutability": "nonpayable",
      "type": "constructor"
    },
    {
      "anonymous": false,
      "inputs": [
        {
          "indexed": true,
          "internalType": "address",
          "name": "owner",
          "type": "address"
        },
        {
          "indexed": true,
          "internalType": "address",
          "name": "approved",
          "type": "address"
        },
        {
          "indexed": true,
          "internalType": "uint256",
          "name": "tokenId",
          "type": "uint256"
        }
      ],
      "name": "Approval",
      "type": "event"
    },
    {
      "anonymous": false,
      "inputs": [
        {
          "indexed": true,
          "internalType": "address",
          "name": "owner",
          "type": "address"
        },
        {
          "indexed": true,
          "internalType": "address",
          "name": "operator",
          "type": "address"
        },
        {
          "indexed": false,
          "internalType": "bool",
          "name": "approved",
          "type": "bool"
        }
      ],
      "name": "ApprovalForAll",
      "type": "event"
    },
    {
      "anonymous": false,
      "inputs": [
        {
          "indexed": true,
          "internalType": "address",
          "name": "from",
          "type": "address"
        },
        {
          "indexed": true,
          "internalType": "address",
          "name": "to",
          "type": "address"
        },
        {
          "indexed": true,
          "internalType": "uint256",
          "name": "tokenId",
          "type": "uint256"
        }
      ],
      "name": "Transfer",
      "type": "event"
    },
    {
      "inputs": [
        {
          "internalType": "address",
          "name": "to",
          "type": "address"
        },
        {
          "internalType": "uint256",
          "name": "tokenId",
          "type": "uint256"
        }
      ],
      "name": "approve",
      "outputs": [],
      "stateMutability": "nonpayable",
      "type": "function"
    },
    {
      "inputs": [
        {
          "internalType": "address",
          "name": "owner",
          "type": "address"
        }
      ],
      "name": "balanceOf",
      "outputs": [
        {
          "internalType": "uint256",
          "name": "",
          "type": "uint256"
        }
      ],
      "stateMutability": "view",
      "type": "function"
    },
    {
      "inputs": [],
      "name": "burn",
      "outputs": [],
      "stateMutability": "nonpayable",
      "type": "function"
    },
    {
      "inputs": [
        {
          "internalType": "uint256",
          "name": "tokenId",
          "type": "uint256"
        }
      ],
      "name": "getApproved",
      "outputs": [
        {
          "internalType": "address",
          "name": "",
          "type": "address"
        }
      ],
      "stateMutability": "view",
      "type": "function"
    },
    {
      "inputs": [
        {
          "internalType": "address",
          "name": "owner",
          "type": "address"
        },
        {
          "internalType": "address",
          "name": "operator",
          "type": "address"
        }
      ],
      "name": "isApprovedForAll",
      "outputs": [
        {
          "internalType": "bool",
          "name": "",
          "type": "bool"
        }
      ],
      "stateMutability": "view",
      "type": "function"
    },
    {
      "inputs": [],
      "name": "name",
      "outputs": [
        {
          "internalType": "string",
          "name": "",
          "type": "string"
        }
      ],
      "stateMutability": "view",
      "type": "function"
    },
    {
      "inputs": [
        {
          "internalType": "uint256",
          "name": "tokenId",
          "type": "uint256"
        }
      ],
      "name": "ownerOf",
      "outputs": [
        {
          "internalType": "address",
          "name": "",
          "type": "address"
        }
      ],
      "stateMutability": "view",
      "type": "function"
    },
    {
      "inputs": [
        {
          "internalType": "address",
          "name": "",
          "type": "address"
        }
      ],
      "name": "ownerToToken",
      "outputs": [
        {
          "internalType": "uint256",
          "name": "",
          "type": "uint256"
        }
      ],
      "stateMutability": "view",
      "type": "function"
    },
    {
      "inputs": [
        {
          "internalType": "address",
          "name": "from",
          "type": "address"
        },
        {
          "internalType": "address",
          "name": "to",
          "type": "address"
        },
        {
          "internalType": "uint256",
          "name": "tokenId",
          "type": "uint256"
        }
      ],
      "name": "safeTransferFrom",
      "outputs": [],
      "stateMutability": "nonpayable",
      "type": "function"
    },
    {
      "inputs": [
        {
          "internalType": "address",
          "name": "from",
          "type": "address"
        },
        {
          "internalType": "address",
          "name": "to",
          "type": "address"
        },
        {
          "internalType": "uint256",
          "name": "tokenId",
          "type": "uint256"
        },
        {
          "internalType": "bytes",
          "name": "data",
          "type": "bytes"
        }
      ],
      "name": "safeTransferFrom",
      "outputs": [],
      "stateMutability": "nonpayable",
      "type": "function"
    },
    {
      "inputs": [
        {
          "internalType": "address",
          "name": "operator",
          "type": "address"
        },
        {
          "internalType": "bool",
          "name": "approved",
          "type": "bool"
        }
      ],
      "name": "setApprovalForAll",
      "outputs": [],
      "stateMutability": "nonpayable",
      "type": "function"
    },
    {
      "inputs": [],
      "name": "singleMint",
      "outputs": [],
      "stateMutability": "nonpayable",
      "type": "function"
    },
    {
      "inputs": [
        {
          "internalType": "bytes4",
          "name": "interfaceId",
          "type": "bytes4"
        }
      ],
      "name": "supportsInterface",
      "outputs": [
        {
          "internalType": "bool",
          "name": "",
          "type": "bool"
        }
      ],
      "stateMutability": "view",
      "type": "function"
    },
    {
      "inputs": [],
      "name": "symbol",
      "outputs": [
        {
          "internalType": "string",
          "name": "",
          "type": "string"
        }
      ],
      "stateMutability": "view",
      "type": "function"
    },
    {
      "inputs": [
        {
          "internalType": "uint256",
          "name": "tokenId",
          "type": "uint256"
        }
      ],
      "name": "tokenURI",
      "outputs": [
        {
          "internalType": "string",
          "name": "",
          "type": "string"
        }
      ],
      "stateMutability": "view",
      "type": "function"
    },
    {
      "inputs": [
        {
          "internalType": "address",
          "name": "from",
          "type": "address"
        },
        {
          "internalType": "address",
          "name": "to",
          "type": "address"
        },
        {
          "internalType": "uint256",
          "name": "tokenId",
          "type": "uint256"
        }
      ],
      "name": "transferFrom",
      "outputs": [],
      "stateMutability": "nonpayable",
      "type": "function"
    }
  ],
  "bytecode": "0x60806040523480156200001157600080fd5b506040518060400160405280600b81526020016a2839bbb226b0b730b3b2b960a91b81525060405180604001604052806007815260200166141cddd913919560ca1b815250816000908162000067919062000144565b50600162000076828262000144565b5050506200009060066200009660201b6200075c1760201c565b62000210565b80546001019055565b634e487b7160e01b600052604160045260246000fd5b600181811c90821680620000ca57607f821691505b602082108103620000eb57634e487b7160e01b600052602260045260246000fd5b50919050565b601f8211156200013f57600081815260208120601f850160051c810160208610156200011a5750805b601f850160051c820191505b818110156200013b5782815560010162000126565b5050505b505050565b81516001600160401b038111156200016057620001606200009f565b6200017881620001718454620000b5565b84620000f1565b602080601f831160018114620001b05760008415620001975750858301515b600019600386901b1c1916600185901b1785556200013b565b600085815260208120601f198616915b82811015620001e157888601518255948401946001909101908401620001c0565b5085821015620002005787850151600019600388901b60f8161c191681555b5050505050600190811b01905550565b61150e80620002206000396000f3fe608060405234801561001057600080fd5b50600436106101005760003560e01c80636352211e11610097578063a22cb46511610066578063a22cb46514610214578063b88d4fde14610227578063c87b56dd1461023a578063e985e9c51461024d57600080fd5b80636352211e146101de57806370a08231146101f15780638a4e6f2a1461020457806395d89b411461020c57600080fd5b80630ce5aeef116100d35780630ce5aeef1461018257806323b872dd146101b057806342842e0e146101c357806344df8e70146101d657600080fd5b806301ffc9a71461010557806306fdde031461012d578063081812fc14610142578063095ea7b31461016d575b600080fd5b61011861011336600461109a565b610289565b60405190151581526020015b60405180910390f35b6101356102db565b6040516101249190611107565b61015561015036600461111a565b61036d565b6040516001600160a01b039091168152602001610124565b61018061017b36600461114f565b610394565b005b6101a2610190366004611179565b60076020526000908152604090205481565b604051908152602001610124565b6101806101be366004611194565b6104ae565b6101806101d1366004611194565b6104df565b6101806104fa565b6101556101ec36600461111a565b610515565b6101a26101ff366004611179565b610575565b6101806105fb565b610135610692565b6101806102223660046111d0565b6106a1565b610180610235366004611222565b6106b0565b61013561024836600461111a565b6106e8565b61011861025b3660046112fe565b6001600160a01b03918216600090815260056020908152604080832093909416825291909152205460ff1690565b60006001600160e01b031982166380ac58cd60e01b14806102ba57506001600160e01b03198216635b5e139f60e01b145b806102d557506301ffc9a760e01b6001600160e01b03198316145b92915050565b6060600080546102ea90611331565b80601f016020809104026020016040519081016040528092919081815260200182805461031690611331565b80156103635780601f1061033857610100808354040283529160200191610363565b820191906000526020600020905b81548152906001019060200180831161034657829003601f168201915b5050505050905090565b600061037882610765565b506000908152600460205260409020546001600160a01b031690565b600061039f82610515565b9050806001600160a01b0316836001600160a01b0316036104115760405162461bcd60e51b815260206004820152602160248201527f4552433732313a20617070726f76616c20746f2063757272656e74206f776e656044820152603960f91b60648201526084015b60405180910390fd5b336001600160a01b038216148061042d575061042d813361025b565b61049f5760405162461bcd60e51b815260206004820152603d60248201527f4552433732313a20617070726f76652063616c6c6572206973206e6f7420746f60448201527f6b656e206f776e6572206f7220617070726f76656420666f7220616c6c0000006064820152608401610408565b6104a983836107c7565b505050565b6104b83382610835565b6104d45760405162461bcd60e51b81526004016104089061136b565b6104a98383836108b4565b6104a9838383604051806020016040528060008152506106b0565b3360009081526007602052604090205461051390610a25565b565b6000818152600260205260408120546001600160a01b0316806102d55760405162461bcd60e51b8152602060048201526018602482015277115490cdcc8c4e881a5b9d985b1a59081d1bdad95b88125160421b6044820152606401610408565b60006001600160a01b0382166105df5760405162461bcd60e51b815260206004820152602960248201527f4552433732313a2061646472657373207a65726f206973206e6f7420612076616044820152683634b21037bbb732b960b91b6064820152608401610408565b506001600160a01b031660009081526003602052604090205490565b61060433610575565b1561065b5760405162461bcd60e51b815260206004820152602160248201527f4e6f7420616c6c6f77656420746f206d696e74206d6f7265207468616e206f6e6044820152606560f81b6064820152608401610408565b600061066660065490565b9050610676600680546001019055565b6106803382610ac8565b33600090815260076020526040902055565b6060600180546102ea90611331565b6106ac338383610ae2565b5050565b6106ba3383610835565b6106d65760405162461bcd60e51b81526004016104089061136b565b6106e284848484610bb0565b50505050565b60606106f382610765565b600061070a60408051602081019091526000815290565b9050600081511161072a5760405180602001604052806000815250610755565b8061073484610be3565b6040516020016107459291906113b8565b6040516020818303038152906040525b9392505050565b80546001019055565b6000818152600260205260409020546001600160a01b03166107c45760405162461bcd60e51b8152602060048201526018602482015277115490cdcc8c4e881a5b9d985b1a59081d1bdad95b88125160421b6044820152606401610408565b50565b600081815260046020526040902080546001600160a01b0319166001600160a01b03841690811790915581906107fc82610515565b6001600160a01b03167f8c5be1e5ebec7d5bd14f71427d1e84f3dd0314c0f7b2291e5b200ac8c7c3b92560405160405180910390a45050565b60008061084183610515565b9050806001600160a01b0316846001600160a01b0316148061088857506001600160a01b0380821660009081526005602090815260408083209388168352929052205460ff165b806108ac5750836001600160a01b03166108a18461036d565b6001600160a01b0316145b949350505050565b826001600160a01b03166108c782610515565b6001600160a01b0316146108ed5760405162461bcd60e51b8152600401610408906113e7565b6001600160a01b03821661094f5760405162461bcd60e51b8152602060048201526024808201527f4552433732313a207472616e7366657220746f20746865207a65726f206164646044820152637265737360e01b6064820152608401610408565b61095c8383836001610c76565b826001600160a01b031661096f82610515565b6001600160a01b0316146109955760405162461bcd60e51b8152600401610408906113e7565b600081815260046020908152604080832080546001600160a01b03199081169091556001600160a01b0387811680865260038552838620805460001901905590871680865283862080546001019055868652600290945282852080549092168417909155905184937fddf252ad1be2c89b69c2b068fc378daa952ba7f163c4a11628f55a4df523b3ef91a4505050565b6000610a3082610515565b9050610a40816000846001610c76565b610a4982610515565b600083815260046020908152604080832080546001600160a01b03199081169091556001600160a01b0385168085526003845282852080546000190190558785526002909352818420805490911690555192935084927fddf252ad1be2c89b69c2b068fc378daa952ba7f163c4a11628f55a4df523b3ef908390a45050565b6106ac828260405180602001604052806000815250610cdf565b816001600160a01b0316836001600160a01b031603610b435760405162461bcd60e51b815260206004820152601960248201527f4552433732313a20617070726f766520746f2063616c6c6572000000000000006044820152606401610408565b6001600160a01b03838116600081815260056020908152604080832094871680845294825291829020805460ff191686151590811790915591519182527f17307eab39ab6107e8899845ad3d59bd9653f200f220920489ca2b5937696c31910160405180910390a3505050565b610bbb8484846108b4565b610bc784848484610d12565b6106e25760405162461bcd60e51b81526004016104089061142c565b60606000610bf083610e13565b600101905060008167ffffffffffffffff811115610c1057610c1061120c565b6040519080825280601f01601f191660200182016040528015610c3a576020820181803683370190505b5090508181016020015b600019016f181899199a1a9b1b9c1cb0b131b232b360811b600a86061a8153600a8504945084610c4457509392505050565b6001600160a01b0384161580610c9357506001600160a01b038316155b6106e25760405162461bcd60e51b815260206004820152601d60248201527f4e6f7420616c6c6f77656420746f207472616e7366657220746f6b656e0000006044820152606401610408565b610ce98383610eeb565b610cf66000848484610d12565b6104a95760405162461bcd60e51b81526004016104089061142c565b60006001600160a01b0384163b15610e0857604051630a85bd0160e11b81526001600160a01b0385169063150b7a0290610d5690339089908890889060040161147e565b6020604051808303816000875af1925050508015610d91575060408051601f3d908101601f19168201909252610d8e918101906114bb565b60015b610dee573d808015610dbf576040519150601f19603f3d011682016040523d82523d6000602084013e610dc4565b606091505b508051600003610de65760405162461bcd60e51b81526004016104089061142c565b805181602001fd5b6001600160e01b031916630a85bd0160e11b1490506108ac565b506001949350505050565b60008072184f03e93ff9f4daa797ed6e38ed64bf6a1f0160401b8310610e525772184f03e93ff9f4daa797ed6e38ed64bf6a1f0160401b830492506040015b6d04ee2d6d415b85acef81000000008310610e7e576d04ee2d6d415b85acef8100000000830492506020015b662386f26fc100008310610e9c57662386f26fc10000830492506010015b6305f5e1008310610eb4576305f5e100830492506008015b6127108310610ec857612710830492506004015b60648310610eda576064830492506002015b600a83106102d55760010192915050565b6001600160a01b038216610f415760405162461bcd60e51b815260206004820181905260248201527f4552433732313a206d696e7420746f20746865207a65726f20616464726573736044820152606401610408565b6000818152600260205260409020546001600160a01b031615610fa65760405162461bcd60e51b815260206004820152601c60248201527f4552433732313a20746f6b656e20616c7265616479206d696e746564000000006044820152606401610408565b610fb4600083836001610c76565b6000818152600260205260409020546001600160a01b0316156110195760405162461bcd60e51b815260206004820152601c60248201527f4552433732313a20746f6b656e20616c7265616479206d696e746564000000006044820152606401610408565b6001600160a01b038216600081815260036020908152604080832080546001019055848352600290915280822080546001600160a01b0319168417905551839291907fddf252ad1be2c89b69c2b068fc378daa952ba7f163c4a11628f55a4df523b3ef908290a45050565b6001600160e01b0319811681146107c457600080fd5b6000602082840312156110ac57600080fd5b813561075581611084565b60005b838110156110d25781810151838201526020016110ba565b50506000910152565b600081518084526110f38160208601602086016110b7565b601f01601f19169290920160200192915050565b60208152600061075560208301846110db565b60006020828403121561112c57600080fd5b5035919050565b80356001600160a01b038116811461114a57600080fd5b919050565b6000806040838503121561116257600080fd5b61116b83611133565b946020939093013593505050565b60006020828403121561118b57600080fd5b61075582611133565b6000806000606084860312156111a957600080fd5b6111b284611133565b92506111c060208501611133565b9150604084013590509250925092565b600080604083850312156111e357600080fd5b6111ec83611133565b91506020830135801515811461120157600080fd5b809150509250929050565b634e487b7160e01b600052604160045260246000fd5b6000806000806080858703121561123857600080fd5b61124185611133565b935061124f60208601611133565b925060408501359150606085013567ffffffffffffffff8082111561127357600080fd5b818701915087601f83011261128757600080fd5b8135818111156112995761129961120c565b604051601f8201601f19908116603f011681019083821181831017156112c1576112c161120c565b816040528281528a60208487010111156112da57600080fd5b82602086016020830137600060208483010152809550505050505092959194509250565b6000806040838503121561131157600080fd5b61131a83611133565b915061132860208401611133565b90509250929050565b600181811c9082168061134557607f821691505b60208210810361136557634e487b7160e01b600052602260045260246000fd5b50919050565b6020808252602d908201527f4552433732313a2063616c6c6572206973206e6f7420746f6b656e206f776e6560408201526c1c881bdc88185c1c1c9bdd9959609a1b606082015260800190565b600083516113ca8184602088016110b7565b8351908301906113de8183602088016110b7565b01949350505050565b60208082526025908201527f4552433732313a207472616e736665722066726f6d20696e636f72726563742060408201526437bbb732b960d91b606082015260800190565b60208082526032908201527f4552433732313a207472616e7366657220746f206e6f6e20455243373231526560408201527131b2b4bb32b91034b6b83632b6b2b73a32b960711b606082015260800190565b6001600160a01b03858116825284166020820152604081018390526080606082018190526000906114b1908301846110db565b9695505050505050565b6000602082840312156114cd57600080fd5b81516107558161108456fea2646970667358221220e473e1e4e76b9e83de0a5c4827211f3dad59b89788f868cd40a5ecf3715f34cf64736f6c63430008110033",
  "linkReferences": {},
  "deployedLinkReferences": {}
}